{
  "contractName": "ComplianceAudit",
  "abi": [
    {
      "inputs": [
        {
          "internalType": "address",
          "name": "_userManagementAddress",
          "type": "address"
        },
        {
          "internalType": "address",
          "name": "_recyclerAddress",
          "type": "address"
        },
        {
          "internalType": "address",
          "name": "_eWasteTrackerAddress",
          "type": "address"
        },
        {
          "internalType": "address",
          "name": "_logisticsTrackerAddress",
          "type": "address"
        }
      ],
      "stateMutability": "nonpayable",
      "type": "constructor"
    },
    {
      "anonymous": false,
      "inputs": [
        {
          "indexed": false,
          "internalType": "uint256",
          "name": "id",
          "type": "uint256"
        },
        {
          "indexed": false,
          "internalType": "uint256",
          "name": "wasteId",
          "type": "uint256"
        },
        {
          "indexed": false,
          "internalType": "enum ComplianceAudit.ComplianceStatus",
          "name": "status",
          "type": "uint8"
        },
        {
          "indexed": false,
          "internalType": "string",
          "name": "details",
          "type": "string"
        },
        {
          "indexed": true,
          "internalType": "address",
          "name": "auditor",
          "type": "address"
        },
        {
          "indexed": false,
          "internalType": "uint256",
          "name": "auditedAt",
          "type": "uint256"
        }
      ],
      "name": "AuditLogged",
      "type": "event"
    },
    {
      "anonymous": false,
      "inputs": [
        {
          "indexed": false,
          "internalType": "uint256",
          "name": "wasteId",
          "type": "uint256"
        },
        {
          "indexed": false,
          "internalType": "string",
          "name": "certificateHash",
          "type": "string"
        },
        {
          "indexed": true,
          "internalType": "address",
          "name": "recipient",
          "type": "address"
        },
        {
          "indexed": false,
          "internalType": "uint256",
          "name": "issuedAt",
          "type": "uint256"
        }
      ],
      "name": "CertificateIssued",
      "type": "event"
    },
    {
      "anonymous": false,
      "inputs": [
        {
          "indexed": false,
          "internalType": "uint256",
          "name": "wasteId",
          "type": "uint256"
        },
        {
          "indexed": true,
          "internalType": "address",
          "name": "responsible",
          "type": "address"
        },
        {
          "indexed": false,
          "internalType": "string",
          "name": "details",
          "type": "string"
        },
        {
          "indexed": true,
          "internalType": "address",
          "name": "auditor",
          "type": "address"
        }
      ],
      "name": "NonComplianceLogged",
      "type": "event"
    },
    {
      "inputs": [],
      "name": "auditCounter",
      "outputs": [
        {
          "internalType": "uint256",
          "name": "",
          "type": "uint256"
        }
      ],
      "stateMutability": "view",
      "type": "function",
      "constant": true
    },
    {
      "inputs": [
        {
          "internalType": "uint256",
          "name": "",
          "type": "uint256"
        }
      ],
      "name": "audits",
      "outputs": [
        {
          "internalType": "uint256",
          "name": "id",
          "type": "uint256"
        },
        {
          "internalType": "uint256",
          "name": "wasteId",
          "type": "uint256"
        },
        {
          "internalType": "enum ComplianceAudit.ComplianceStatus",
          "name": "complianceStatus",
          "type": "uint8"
        },
        {
          "internalType": "string",
          "name": "details",
          "type": "string"
        },
        {
          "internalType": "string",
          "name": "evidenceHash",
          "type": "string"
        },
        {
          "internalType": "address",
          "name": "auditor",
          "type": "address"
        },
        {
          "internalType": "uint256",
          "name": "auditedAt",
          "type": "uint256"
        }
      ],
      "stateMutability": "view",
      "type": "function",
      "constant": true
    },
    {
      "inputs": [],
      "name": "eWasteTracker",
      "outputs": [
        {
          "internalType": "contract eWasteTracking",
          "name": "",
          "type": "address"
        }
      ],
      "stateMutability": "view",
      "type": "function",
      "constant": true
    },
    {
      "inputs": [],
      "name": "logisticsTracker",
      "outputs": [
        {
          "internalType": "contract LogisticsTracking",
          "name": "",
          "type": "address"
        }
      ],
      "stateMutability": "view",
      "type": "function",
      "constant": true
    },
    {
      "inputs": [],
      "name": "recycler",
      "outputs": [
        {
          "internalType": "contract RecyclingManagement",
          "name": "",
          "type": "address"
        }
      ],
      "stateMutability": "view",
      "type": "function",
      "constant": true
    },
    {
      "inputs": [],
      "name": "userManagement",
      "outputs": [
        {
          "internalType": "contract UserManagement",
          "name": "",
          "type": "address"
        }
      ],
      "stateMutability": "view",
      "type": "function",
      "constant": true
    },
    {
      "inputs": [
        {
          "internalType": "uint256",
          "name": "_wasteId",
          "type": "uint256"
        },
        {
          "internalType": "enum ComplianceAudit.ComplianceStatus",
          "name": "_status",
          "type": "uint8"
        },
        {
          "internalType": "string",
          "name": "_details",
          "type": "string"
        },
        {
          "internalType": "string",
          "name": "_evidenceHash",
          "type": "string"
        }
      ],
      "name": "logAudit",
      "outputs": [],
      "stateMutability": "nonpayable",
      "type": "function"
    },
    {
      "inputs": [
        {
          "internalType": "uint256",
          "name": "_wasteId",
          "type": "uint256"
        },
        {
          "internalType": "string",
          "name": "_certificateHash",
          "type": "string"
        },
        {
          "internalType": "address",
          "name": "_recipient",
          "type": "address"
        }
      ],
      "name": "issueCertificate",
      "outputs": [],
      "stateMutability": "nonpayable",
      "type": "function"
    },
    {
      "inputs": [
        {
          "internalType": "uint256",
          "name": "_wasteId",
          "type": "uint256"
        }
      ],
      "name": "getAuditsByWasteId",
      "outputs": [
        {
          "internalType": "uint256[]",
          "name": "",
          "type": "uint256[]"
        }
      ],
      "stateMutability": "view",
      "type": "function",
      "constant": true
    },
    {
      "inputs": [
        {
          "internalType": "enum ComplianceAudit.ComplianceStatus",
          "name": "_status",
          "type": "uint8"
        }
      ],
      "name": "getAuditsByStatus",
      "outputs": [
        {
          "internalType": "uint256[]",
          "name": "",
          "type": "uint256[]"
        }
      ],
      "stateMutability": "view",
      "type": "function",
      "constant": true
    },
    {
      "inputs": [
        {
          "internalType": "uint256",
          "name": "_auditId",
          "type": "uint256"
        }
      ],
      "name": "getAuditDetails",
      "outputs": [
        {
          "internalType": "uint256",
          "name": "id",
          "type": "uint256"
        },
        {
          "internalType": "uint256",
          "name": "wasteId",
          "type": "uint256"
        },
        {
          "internalType": "enum ComplianceAudit.ComplianceStatus",
          "name": "complianceStatus",
          "type": "uint8"
        },
        {
          "internalType": "string",
          "name": "details",
          "type": "string"
        },
        {
          "internalType": "string",
          "name": "evidenceHash",
          "type": "string"
        },
        {
          "internalType": "address",
          "name": "auditor",
          "type": "address"
        },
        {
          "internalType": "uint256",
          "name": "auditedAt",
          "type": "uint256"
        }
      ],
      "stateMutability": "view",
      "type": "function",
      "constant": true
    }
  ],
  "bytecode": "0x60806040523480156200001157600080fd5b5060405162001a6538038062001a658339810160408190526200003491620000a7565b600080546001600160a01b03199081166001600160a01b03968716178255600180548216958716959095179094556002805485169386169390931790925560038054909316931692909217905560055562000103565b80516001600160a01b0381168114620000a257600080fd5b919050565b60008060008060808587031215620000bd578384fd5b620000c8856200008a565b9350620000d8602086016200008a565b9250620000e8604086016200008a565b9150620000f8606086016200008a565b905092959194509250565b61195280620001136000396000f3fe608060405234801561001057600080fd5b50600436106100a95760003560e01c8063a234e65f11610071578063a234e65f1461011e578063a376e7cc14610126578063b1ccbc0a14610139578063b60e73db1461015f578063ee7aca4714610172578063fbc7de921461017a576100a9565b806323718a8c146100ae5780634535c698146100cc57806360c13b8a146100ec5780636a767f50146101015780639b5e847c14610116575b600080fd5b6100b661018d565b6040516100c391906116c4565b60405180910390f35b6100df6100da366004611183565b610193565b6040516100c391906114ec565b6100ff6100fa366004611215565b6102b0565b005b610109610535565b6040516100c391906114d8565b610109610544565b610109610553565b6100df610134366004611143565b610562565b61014c610147366004611183565b6106f5565b6040516100c3979695949392919061174d565b61014c61016d366004611183565b610922565b610109610a7d565b6100ff61018836600461119b565b610a8c565b60055481565b6060600060015b60055481116101dc576000818152600460205260409020600101548414156101ca57816101c6816118c7565b9250505b806101d4816118c7565b91505061019a565b506000816001600160401b0381111561020557634e487b7160e01b600052604160045260246000fd5b60405190808252806020026020018201604052801561022e578160200160208202803683370190505b509050600060015b60055481116102a457600081815260046020526040902060010154861415610292578083838151811061027957634e487b7160e01b600052603260045260246000fd5b60209081029190910101528161028e816118c7565b9250505b8061029c816118c7565b915050610236565b5090925050505b919050565b600054604051632782085160e01b81526003916001600160a01b0316906327820851906102e19033906004016114d8565b60206040518083038186803b1580156102f957600080fd5b505afa15801561030d573d6000803e3d6000fd5b505050506040513d601f19601f820116820180604052508101906103319190611164565b600481111561035057634e487b7160e01b600052602160045260246000fd5b146103765760405162461bcd60e51b815260040161036d90611637565b60405180910390fd5b6001600160a01b03811661039c5760405162461bcd60e51b815260040161036d9061168d565b6002546040516303678e5b60e11b81526000916001600160a01b0316906306cf1cb6906103cd9087906004016116c4565b60006040518083038186803b1580156103e557600080fd5b505afa1580156103f9573d6000803e3d6000fd5b505050506040513d6000823e601f3d908101601f19168201604052610421919081019061135e565b5099505050505050505050508061044a5760405162461bcd60e51b815260040161036d90611530565b600060015b60055481116104cb57600081815260046020526040902060010154861480156104ab5750600160008281526004602052604090206002015460ff1660038111156104a957634e487b7160e01b600052602160045260246000fd5b145b156104b957600191506104cb565b806104c3816118c7565b91505061044f565b50806104e95760405162461bcd60e51b815260040161036d906115e4565b826001600160a01b03167f3898d3b89bbe6b70b35d0de31978d1521ec55404ee14592f253ea8a0c5e97247868642604051610526939291906116e6565b60405180910390a25050505050565b6000546001600160a01b031681565b6002546001600160a01b031681565b6003546001600160a01b031681565b6060600060015b60055481116105ec5783600381111561059257634e487b7160e01b600052602160045260246000fd5b60008281526004602052604090206002015460ff1660038111156105c657634e487b7160e01b600052602160045260246000fd5b14156105da57816105d6816118c7565b9250505b806105e4816118c7565b915050610569565b506000816001600160401b0381111561061557634e487b7160e01b600052604160045260246000fd5b60405190808252806020026020018201604052801561063e578160200160208202803683370190505b509050600060015b60055481116102a45785600381111561066f57634e487b7160e01b600052602160045260246000fd5b60008281526004602052604090206002015460ff1660038111156106a357634e487b7160e01b600052602160045260246000fd5b14156106e357808383815181106106ca57634e487b7160e01b600052603260045260246000fd5b6020908102919091010152816106df816118c7565b9250505b806106ed816118c7565b915050610646565b600080600060608060008060008811801561071257506005548811155b61072e5760405162461bcd60e51b815260040161036d90611583565b6000888152600460209081526040808320815160e081018352815481526001820154938101939093526002810154909183019060ff16600381111561078357634e487b7160e01b600052602160045260246000fd5b60038111156107a257634e487b7160e01b600052602160045260246000fd5b81526020016003820180546107b69061188c565b80601f01602080910402602001604051908101604052809291908181526020018280546107e29061188c565b801561082f5780601f106108045761010080835404028352916020019161082f565b820191906000526020600020905b81548152906001019060200180831161081257829003601f168201915b505050505081526020016004820180546108489061188c565b80601f01602080910402602001604051908101604052809291908181526020018280546108749061188c565b80156108c15780601f10610896576101008083540402835291602001916108c1565b820191906000526020600020905b8154815290600101906020018083116108a457829003601f168201915b505050918352505060058201546001600160a01b0316602080830191909152600690920154604091820152825191830151908301516060840151608085015160a086015160c090960151949f939e50919c509a509850919650945092505050565b60046020526000908152604090208054600182015460028301546003840180549394929360ff90921692916109569061188c565b80601f01602080910402602001604051908101604052809291908181526020018280546109829061188c565b80156109cf5780601f106109a4576101008083540402835291602001916109cf565b820191906000526020600020905b8154815290600101906020018083116109b257829003601f168201915b5050505050908060040180546109e49061188c565b80601f0160208091040260200160405190810160405280929190818152602001828054610a109061188c565b8015610a5d5780601f10610a3257610100808354040283529160200191610a5d565b820191906000526020600020905b815481529060010190602001808311610a4057829003601f168201915b50505050600583015460069093015491926001600160a01b031691905087565b6001546001600160a01b031681565b600054604051632782085160e01b81526003916001600160a01b031690632782085190610abd9033906004016114d8565b60206040518083038186803b158015610ad557600080fd5b505afa158015610ae9573d6000803e3d6000fd5b505050506040513d601f19601f82011682018060405250810190610b0d9190611164565b6004811115610b2c57634e487b7160e01b600052602160045260246000fd5b14610b495760405162461bcd60e51b815260040161036d90611637565b6002546040516303678e5b60e11b81526000918291829182916001600160a01b03909116906306cf1cb690610b82908b906004016116c4565b60006040518083038186803b158015610b9a57600080fd5b505afa158015610bae573d6000803e3d6000fd5b505050506040513d6000823e601f3d908101601f19168201604052610bd6919081019061135e565b50995099505098505050505050935060008411610c055760405162461bcd60e51b815260040161036d906115ad565b600154604051630299348760e21b815260009182916001600160a01b0390911690630a64d21c90610c3a908d906004016116c4565b60006040518083038186803b158015610c5257600080fd5b505afa925050508015610c8757506040513d6000823e601f3d908101601f19168201604052610c84919081019061126d565b60015b610c9057610c9f565b969a5095985050505050505050505b60058054906000610caf836118c7565b91905055506040518060e0016040528060055481526020018b81526020018a6003811115610ced57634e487b7160e01b600052602160045260246000fd5b8152602001898152602001888152602001336001600160a01b0316815260200142815250600460006005548152602001908152602001600020600082015181600001556020820151816001015560408201518160020160006101000a81548160ff02191690836003811115610d7257634e487b7160e01b600052602160045260246000fd5b021790555060608201518051610d92916003840191602090910190610f19565b5060808201518051610dae916004840191602090910190610f19565b5060a0820151600582810180546001600160a01b0319166001600160a01b039093169290921790915560c0909201516006909101555460405133917fae741ce308cb49d6c69c770a9d34f042366d4764186f98ead55db83401ae9f1d91610e1d91908e908e908e9042906117ab565b60405180910390a26002896003811115610e4757634e487b7160e01b600052602160045260246000fd5b1415610f0d57836001600160a01b03831615801590610e6557508582115b15610ebd57829050336001600160a01b0316816001600160a01b03167f210d3b3d78806ef370592ef8a906ef83027a30b29aa8711088ef1a2a7f2b146c8d604051610eb0919061170f565b60405180910390a3610f0b565b336001600160a01b0316816001600160a01b03167f210d3b3d78806ef370592ef8a906ef83027a30b29aa8711088ef1a2a7f2b146c8d8c604051610f029291906116cd565b60405180910390a35b505b50505050505050505050565b828054610f259061188c565b90600052602060002090601f016020900481019282610f475760008555610f8d565b82601f10610f6057805160ff1916838001178555610f8d565b82800160010185558215610f8d579182015b82811115610f8d578251825591602001919060010190610f72565b50610f99929150610f9d565b5090565b5b80821115610f995760008155600101610f9e565b80516102ab81611904565b600082601f830112610fcd578081fd5b81516020610fe2610fdd83611812565b6117e9565b82815281810190858301855b8581101561101757611005898684518b01016110f8565b84529284019290840190600101610fee565b5090979650505050505050565b600082601f830112611034578081fd5b81516020611044610fdd83611812565b8281528181019085830183850287018401881015611060578586fd5b855b8581101561101757815184529284019290840190600101611062565b805180151581146102ab57600080fd5b8035600481106102ab57600080fd5b8051600381106102ab57600080fd5b600082601f8301126110bc578081fd5b81356110ca610fdd82611835565b8181528460208386010111156110de578283fd5b816020850160208301379081016020019190915292915050565b600082601f830112611108578081fd5b8151611116610fdd82611835565b81815284602083860101111561112a578283fd5b61113b82602083016020870161185c565b949350505050565b600060208284031215611154578081fd5b61115d8261108e565b9392505050565b600060208284031215611175578081fd5b81516005811061115d578182fd5b600060208284031215611194578081fd5b5035919050565b600080600080608085870312156111b0578283fd5b843593506111c06020860161108e565b925060408501356001600160401b03808211156111db578384fd5b6111e7888389016110ac565b935060608701359150808211156111fc578283fd5b50611209878288016110ac565b91505092959194509250565b600080600060608486031215611229578283fd5b8335925060208401356001600160401b03811115611245578283fd5b611251868287016110ac565b925050604084013561126281611904565b809150509250925092565b6000806000806000806000806000806101408b8d03121561128c578586fd5b8a51995060208b01516001600160401b03808211156112a9578788fd5b6112b58e838f016110f8565b9a506112c360408e01610fb2565b99506112d160608e0161109d565b985060808d0151975060a08d01519150808211156112ed578687fd5b6112f98e838f01610fbd565b965060c08d015191508082111561130e578586fd5b61131a8e838f01611024565b955060e08d015191508082111561132f578485fd5b5061133c8d828e016110f8565b9350506101008b015191506101208b015190509295989b9194979a5092959850565b60008060008060008060008060008060006101608c8e03121561137f578485fd5b8b519a5060208c01516001600160401b0381111561139b578586fd5b6113a78e828f016110f8565b9a505060408c01516001600160401b038111156113c2578586fd5b6113ce8e828f016110f8565b99505060608c0151975060808c01516001600160401b038111156113f0578586fd5b6113fc8e828f016110f8565b97505060a08c01516001600160401b03811115611417578586fd5b6114238e828f016110f8565b96505060c08c0151945060e08c015193506114416101008d01610fb2565b92506114506101208d0161107e565b91506101408c01516001600160401b0381111561146b578182fd5b6114778e828f016110f8565b9150509295989b509295989b9093969950565b600481106114a857634e487b7160e01b600052602160045260246000fd5b9052565b600081518084526114c481602086016020860161185c565b601f01601f19169290920160200192915050565b6001600160a01b0391909116815260200190565b6020808252825182820181905260009190848201906040850190845b8181101561152457835183529284019291840191600101611508565b50909695505050505050565b60208082526033908201527f43616e6e6f742069737375652063657274696669636174653a207761737465206040820152721b9bdd08199d5b1b1e481c1c9bd8d95cdcd959606a1b606082015260800190565b60208082526010908201526f125b9d985b1a5908185d591a5d08125160821b604082015260600190565b6020808252601a908201527f5761737465206974656d20646f6573206e6f742065786973742e000000000000604082015260600190565b60208082526033908201527f43616e6e6f742069737375652063657274696669636174653a206e6f20636f6d6040820152721c1b1a585b9d08185d591a5d081c9958dbdc99606a1b606082015260800190565b60208082526036908201527f556e617574686f72697a65643a204f6e6c7920726567756c61746f727320636160408201527537103832b93337b936903a3434b99030b1ba34b7b71760511b606082015260800190565b60208082526019908201527f496e76616c696420726563697069656e74206164647265737300000000000000604082015260600190565b90815260200190565b60008382526040602083015261113b60408301846114ac565b6000848252606060208301526116ff60608301856114ac565b9050826040830152949350505050565b9081526040602082018190526019908201527f52656379636c696e67206d697373656420646561646c696e6500000000000000606082015260800190565b6000888252876020830152611765604083018861148a565b60e0606083015261177960e08301876114ac565b828103608084015261178b81876114ac565b6001600160a01b039590951660a0840152505060c0015295945050505050565b60008682528560208301526117c3604083018661148a565b60a060608301526117d760a08301856114ac565b90508260808301529695505050505050565b6040518181016001600160401b038111828210171561180a5761180a6118ee565b604052919050565b60006001600160401b0382111561182b5761182b6118ee565b5060209081020190565b60006001600160401b0382111561184e5761184e6118ee565b50601f01601f191660200190565b60005b8381101561187757818101518382015260200161185f565b83811115611886576000848401525b50505050565b6002810460018216806118a057607f821691505b602082108114156118c157634e487b7160e01b600052602260045260246000fd5b50919050565b60006000198214156118e757634e487b7160e01b81526011600452602481fd5b5060010190565b634e487b7160e01b600052604160045260246000fd5b6001600160a01b038116811461191957600080fd5b5056fea2646970667358221220a96edfc49be39032c6b6d3719e57c1dd0ccd51325be66dd9e1a4a23e3fc0b0ff64736f6c63430008000033",
  "immutableReferences": {},
  "source": "// SPDX-License-Identifier: MIT\r\npragma solidity ^0.8.0;\r\n\r\nimport \"./UserManagement.sol\";\r\nimport \"./RecyclingManagement.sol\";\r\nimport \"./eWasteTracking.sol\";\r\nimport \"./LogisticsTracking.sol\";\r\n\r\ncontract ComplianceAudit {\r\n    UserManagement public userManagement;\r\n    RecyclingManagement public recycler;\r\n    eWasteTracking public eWasteTracker;\r\n    LogisticsTracking public logisticsTracker;\r\n\r\n    enum ComplianceStatus { Pending, Compliant, NonCompliant, Warning }\r\n\r\n    struct AuditRecord {\r\n        uint id;\r\n        uint wasteId;\r\n        ComplianceStatus complianceStatus;\r\n        string details;\r\n        string evidenceHash;\r\n        address auditor;\r\n        uint256 auditedAt;\r\n    }\r\n\r\n    mapping(uint => AuditRecord) public audits;\r\n    uint public auditCounter;\r\n    \r\n    // Events\r\n    event AuditLogged(\r\n        uint id,\r\n        uint wasteId, \r\n        ComplianceStatus status, \r\n        string details,\r\n        address indexed auditor,\r\n        uint256 auditedAt\r\n    );\r\n    event NonComplianceLogged(\r\n        uint wasteId, \r\n        address indexed responsible, \r\n        string details, \r\n        address indexed auditor\r\n    );\r\n    event CertificateIssued(\r\n        uint wasteId, \r\n        string certificateHash, \r\n        address indexed recipient, \r\n        uint256 issuedAt\r\n    );\r\n\r\n    constructor(\r\n        address _userManagementAddress,\r\n        address _recyclerAddress,\r\n        address _eWasteTrackerAddress,\r\n        address _logisticsTrackerAddress\r\n    ) {\r\n        userManagement = UserManagement(_userManagementAddress);\r\n        recycler = RecyclingManagement(_recyclerAddress);\r\n        eWasteTracker = eWasteTracking(_eWasteTrackerAddress);\r\n        logisticsTracker = LogisticsTracking(_logisticsTrackerAddress);\r\n        auditCounter = 0;\r\n    }\r\n\r\n    modifier onlyRegulator() {\r\n        require(\r\n            userManagement.getUserRole(msg.sender) == UserManagement.Role.Regulator,\r\n            \"Unauthorized: Only regulators can perform this action.\"\r\n        );\r\n        _;\r\n    }\r\n\r\n    function logAudit(\r\n        uint _wasteId, \r\n        ComplianceStatus _status, \r\n        string memory _details,\r\n        string memory _evidenceHash\r\n    ) external onlyRegulator {\r\n        // Verify waste item exists\r\n        (\r\n            uint wasteId,\r\n            , // wasteType - unused\r\n            , // origin - unused\r\n            , // quantity - unused\r\n            , // description - unused\r\n            , // imageHash - unused\r\n            uint256 deadline,\r\n            , // loggedAt - unused\r\n            address producer,\r\n            bool isProcessed,\r\n            // recyclingMethod - unused\r\n        ) = eWasteTracker.getWasteItem(_wasteId);\r\n        \r\n        require(wasteId > 0, \"Waste item does not exist.\");\r\n        \r\n        // Get recycling data if available\r\n        address recyclerAddress;\r\n        uint256 recycledAt;\r\n        try recycler.getRecycledItem(_wasteId) returns (\r\n            uint _wasteId_unused,\r\n            string memory _method_unused,\r\n            address _recycler,\r\n            RecyclingManagement.RecyclingStatus _status_unused,\r\n            uint _progressPercentage_unused,\r\n            string[] memory _materialRecovered_unused,\r\n            uint[] memory _materialQuantities_unused,\r\n            string memory _evidenceHash_unused,\r\n            uint256 _startedAt_unused,\r\n            uint256 _completedAt\r\n        ) {\r\n            recyclerAddress = _recycler;\r\n            recycledAt = _completedAt;\r\n        } catch {\r\n            // No recycling data, which is fine\r\n        }\r\n        \r\n        auditCounter++;\r\n        \r\n        // Create audit record\r\n        audits[auditCounter] = AuditRecord({\r\n            id: auditCounter,\r\n            wasteId: _wasteId,\r\n            complianceStatus: _status,\r\n            details: _details,\r\n            evidenceHash: _evidenceHash,\r\n            auditor: msg.sender,\r\n            auditedAt: block.timestamp\r\n        });\r\n        \r\n        emit AuditLogged(\r\n            auditCounter,\r\n            _wasteId, \r\n            _status, \r\n            _details,\r\n            msg.sender,\r\n            block.timestamp\r\n        );\r\n        \r\n        // Check for non-compliance situations\r\n        if (_status == ComplianceStatus.NonCompliant) {\r\n            address responsible = producer; // Default to producer\r\n            \r\n            if (recyclerAddress != address(0) && recycledAt > deadline) {\r\n                // Recycler missed deadline\r\n                responsible = recyclerAddress;\r\n                emit NonComplianceLogged(\r\n                    _wasteId, \r\n                    responsible, \r\n                    \"Recycling missed deadline\", \r\n                    msg.sender\r\n                );\r\n            } else {\r\n                // Producer is responsible for other non-compliance\r\n                emit NonComplianceLogged(\r\n                    _wasteId, \r\n                    responsible, \r\n                    _details, \r\n                    msg.sender\r\n                );\r\n            }\r\n        }\r\n    }\r\n\r\n    function issueCertificate(\r\n        uint _wasteId, \r\n        string memory _certificateHash, \r\n        address _recipient\r\n    ) external onlyRegulator {\r\n        require(\r\n            _recipient != address(0), \r\n            \"Invalid recipient address\"\r\n        );\r\n        \r\n        // Verify waste is processed\r\n        (\r\n            , // id - unused\r\n            , // wasteType - unused\r\n            , // origin - unused\r\n            , // quantity - unused\r\n            , // description - unused\r\n            , // imageHash - unused\r\n            , // deadline - unused\r\n            , // loggedAt - unused\r\n            , // producer - unused\r\n            bool isProcessed,\r\n            // recyclingMethod - unused\r\n        ) = eWasteTracker.getWasteItem(_wasteId);\r\n        \r\n        require(isProcessed, \"Cannot issue certificate: waste not fully processed\");\r\n        \r\n        // Check if there's an audit record for compliance\r\n        bool foundCompliantAudit = false;\r\n        for (uint i = 1; i <= auditCounter; i++) {\r\n            if (audits[i].wasteId == _wasteId && audits[i].complianceStatus == ComplianceStatus.Compliant) {\r\n                foundCompliantAudit = true;\r\n                break;\r\n            }\r\n        }\r\n        \r\n        require(foundCompliantAudit, \"Cannot issue certificate: no compliant audit record\");\r\n        \r\n        emit CertificateIssued(\r\n            _wasteId, \r\n            _certificateHash, \r\n            _recipient, \r\n            block.timestamp\r\n        );\r\n    }\r\n\r\n    function getAuditsByWasteId(uint _wasteId) external view returns (uint[] memory) {\r\n        uint count = 0;\r\n        \r\n        // Count audits for this waste\r\n        for (uint i = 1; i <= auditCounter; i++) {\r\n            if (audits[i].wasteId == _wasteId) {\r\n                count++;\r\n            }\r\n        }\r\n        \r\n        // Create array of IDs\r\n        uint[] memory result = new uint[](count);\r\n        uint index = 0;\r\n        \r\n        // Fill array with IDs\r\n        for (uint i = 1; i <= auditCounter; i++) {\r\n            if (audits[i].wasteId == _wasteId) {\r\n                result[index] = i;\r\n                index++;\r\n            }\r\n        }\r\n        \r\n        return result;\r\n    }\r\n\r\n    function getAuditsByStatus(ComplianceStatus _status) external view returns (uint[] memory) {\r\n        uint count = 0;\r\n        \r\n        // Count audits with this status\r\n        for (uint i = 1; i <= auditCounter; i++) {\r\n            if (audits[i].complianceStatus == _status) {\r\n                count++;\r\n            }\r\n        }\r\n        \r\n        // Create array of IDs\r\n        uint[] memory result = new uint[](count);\r\n        uint index = 0;\r\n        \r\n        // Fill array with IDs\r\n        for (uint i = 1; i <= auditCounter; i++) {\r\n            if (audits[i].complianceStatus == _status) {\r\n                result[index] = i;\r\n                index++;\r\n            }\r\n        }\r\n        \r\n        return result;\r\n    }\r\n\r\n    function getAuditDetails(uint _auditId) external view returns (\r\n        uint id,\r\n        uint wasteId,\r\n        ComplianceStatus complianceStatus,\r\n        string memory details,\r\n        string memory evidenceHash,\r\n        address auditor,\r\n        uint256 auditedAt\r\n    ) {\r\n        require(_auditId > 0 && _auditId <= auditCounter, \"Invalid audit ID\");\r\n        \r\n        AuditRecord memory audit = audits[_auditId];\r\n        \r\n        return (\r\n            audit.id,\r\n            audit.wasteId,\r\n            audit.complianceStatus,\r\n            audit.details,\r\n            audit.evidenceHash,\r\n            audit.auditor,\r\n            audit.auditedAt\r\n        );\r\n    }\r\n}",
  "sourcePath": "C:\\Users\\harod\\OneDrive\\Documents\\Ewaste11\\ewaste_v2\\contracts\\ComplianceAudit.sol",
  "compiler": {
    "name": "solc",
    "version": "0.8.0+commit.c7dfd78e.Emscripten.clang"
  },
  "schemaVersion": "3.4.16",
  "updatedAt": "2025-05-13T14:13:43.989Z",
  "networkType": "ethereum",
  "devdoc": {
    "kind": "dev",
    "methods": {},
    "version": 1
  },
  "userdoc": {
    "kind": "user",
    "methods": {},
    "version": 1
  }
}