{
  "contractName": "eWasteTracking",
  "abi": [
    {
      "inputs": [
        {
          "internalType": "address",
          "name": "_userManagementAddress",
          "type": "address"
        }
      ],
      "stateMutability": "nonpayable",
      "type": "constructor"
    },
    {
      "anonymous": false,
      "inputs": [
        {
          "indexed": false,
          "internalType": "uint256",
          "name": "id",
          "type": "uint256"
        },
        {
          "indexed": false,
          "internalType": "string",
          "name": "wasteType",
          "type": "string"
        },
        {
          "indexed": false,
          "internalType": "string",
          "name": "origin",
          "type": "string"
        },
        {
          "indexed": false,
          "internalType": "uint256",
          "name": "quantity",
          "type": "uint256"
        },
        {
          "indexed": false,
          "internalType": "string",
          "name": "description",
          "type": "string"
        },
        {
          "indexed": false,
          "internalType": "string",
          "name": "imageHash",
          "type": "string"
        },
        {
          "indexed": false,
          "internalType": "uint256",
          "name": "deadline",
          "type": "uint256"
        },
        {
          "indexed": true,
          "internalType": "address",
          "name": "producer",
          "type": "address"
        }
      ],
      "name": "WasteLogged",
      "type": "event"
    },
    {
      "anonymous": false,
      "inputs": [
        {
          "indexed": false,
          "internalType": "uint256",
          "name": "id",
          "type": "uint256"
        },
        {
          "indexed": true,
          "internalType": "address",
          "name": "recycler",
          "type": "address"
        },
        {
          "indexed": false,
          "internalType": "string",
          "name": "recyclingMethod",
          "type": "string"
        }
      ],
      "name": "WasteProcessed",
      "type": "event"
    },
    {
      "anonymous": false,
      "inputs": [
        {
          "indexed": false,
          "internalType": "uint256",
          "name": "id",
          "type": "uint256"
        },
        {
          "indexed": false,
          "internalType": "string",
          "name": "field",
          "type": "string"
        },
        {
          "indexed": false,
          "internalType": "string",
          "name": "newValue",
          "type": "string"
        }
      ],
      "name": "WasteUpdated",
      "type": "event"
    },
    {
      "inputs": [],
      "name": "userManagement",
      "outputs": [
        {
          "internalType": "contract UserManagement",
          "name": "",
          "type": "address"
        }
      ],
      "stateMutability": "view",
      "type": "function",
      "constant": true
    },
    {
      "inputs": [],
      "name": "wasteCounter",
      "outputs": [
        {
          "internalType": "uint256",
          "name": "",
          "type": "uint256"
        }
      ],
      "stateMutability": "view",
      "type": "function",
      "constant": true
    },
    {
      "inputs": [
        {
          "internalType": "uint256",
          "name": "",
          "type": "uint256"
        }
      ],
      "name": "wasteRecords",
      "outputs": [
        {
          "internalType": "uint256",
          "name": "id",
          "type": "uint256"
        },
        {
          "internalType": "string",
          "name": "wasteType",
          "type": "string"
        },
        {
          "internalType": "string",
          "name": "origin",
          "type": "string"
        },
        {
          "internalType": "uint256",
          "name": "quantity",
          "type": "uint256"
        },
        {
          "internalType": "string",
          "name": "description",
          "type": "string"
        },
        {
          "internalType": "string",
          "name": "imageHash",
          "type": "string"
        },
        {
          "internalType": "uint256",
          "name": "deadline",
          "type": "uint256"
        },
        {
          "internalType": "uint256",
          "name": "loggedAt",
          "type": "uint256"
        },
        {
          "internalType": "address",
          "name": "producer",
          "type": "address"
        },
        {
          "internalType": "bool",
          "name": "isProcessed",
          "type": "bool"
        },
        {
          "internalType": "string",
          "name": "recyclingMethod",
          "type": "string"
        }
      ],
      "stateMutability": "view",
      "type": "function",
      "constant": true
    },
    {
      "inputs": [
        {
          "internalType": "string",
          "name": "_wasteType",
          "type": "string"
        },
        {
          "internalType": "string",
          "name": "_origin",
          "type": "string"
        },
        {
          "internalType": "uint256",
          "name": "_quantity",
          "type": "uint256"
        },
        {
          "internalType": "string",
          "name": "_description",
          "type": "string"
        },
        {
          "internalType": "string",
          "name": "_imageHash",
          "type": "string"
        },
        {
          "internalType": "uint256",
          "name": "_deadline",
          "type": "uint256"
        }
      ],
      "name": "logWaste",
      "outputs": [],
      "stateMutability": "nonpayable",
      "type": "function"
    },
    {
      "inputs": [
        {
          "internalType": "uint256",
          "name": "_id",
          "type": "uint256"
        },
        {
          "internalType": "string",
          "name": "_recyclingMethod",
          "type": "string"
        }
      ],
      "name": "markAsProcessed",
      "outputs": [],
      "stateMutability": "nonpayable",
      "type": "function"
    },
    {
      "inputs": [
        {
          "internalType": "uint256",
          "name": "_id",
          "type": "uint256"
        },
        {
          "internalType": "string",
          "name": "_field",
          "type": "string"
        },
        {
          "internalType": "string",
          "name": "_value",
          "type": "string"
        }
      ],
      "name": "updateWasteDetails",
      "outputs": [],
      "stateMutability": "nonpayable",
      "type": "function"
    },
    {
      "inputs": [
        {
          "internalType": "uint256",
          "name": "_id",
          "type": "uint256"
        }
      ],
      "name": "getWasteItem",
      "outputs": [
        {
          "internalType": "uint256",
          "name": "id",
          "type": "uint256"
        },
        {
          "internalType": "string",
          "name": "wasteType",
          "type": "string"
        },
        {
          "internalType": "string",
          "name": "origin",
          "type": "string"
        },
        {
          "internalType": "uint256",
          "name": "quantity",
          "type": "uint256"
        },
        {
          "internalType": "string",
          "name": "description",
          "type": "string"
        },
        {
          "internalType": "string",
          "name": "imageHash",
          "type": "string"
        },
        {
          "internalType": "uint256",
          "name": "deadline",
          "type": "uint256"
        },
        {
          "internalType": "uint256",
          "name": "loggedAt",
          "type": "uint256"
        },
        {
          "internalType": "address",
          "name": "producer",
          "type": "address"
        },
        {
          "internalType": "bool",
          "name": "isProcessed",
          "type": "bool"
        },
        {
          "internalType": "string",
          "name": "recyclingMethod",
          "type": "string"
        }
      ],
      "stateMutability": "view",
      "type": "function",
      "constant": true
    },
    {
      "inputs": [
        {
          "internalType": "address",
          "name": "_producer",
          "type": "address"
        }
      ],
      "name": "getWasteItemsByProducer",
      "outputs": [
        {
          "internalType": "uint256[]",
          "name": "",
          "type": "uint256[]"
        }
      ],
      "stateMutability": "view",
      "type": "function",
      "constant": true
    },
    {
      "inputs": [],
      "name": "getAllWasteItems",
      "outputs": [
        {
          "internalType": "uint256[]",
          "name": "",
          "type": "uint256[]"
        }
      ],
      "stateMutability": "view",
      "type": "function",
      "constant": true
    }
  ],
  "bytecode": "0x608060405234801561001057600080fd5b50604051611b70380380611b7083398101604081905261002f91610057565b600080546001600160a01b0319166001600160a01b0392909216919091178155600255610085565b600060208284031215610068578081fd5b81516001600160a01b038116811461007e578182fd5b9392505050565b611adc806100946000396000f3fe608060405234801561001057600080fd5b50600436106100935760003560e01c80635f955c3c116100665780635f955c3c146101085780636a767f501461011b5780637b35982114610130578063f3eaae2314610150578063f9a3e3451461015857610093565b806306cf1cb6146100985780631250b952146100cb57806324d594ed146100de5780635c3a4c70146100f3575b600080fd5b6100ab6100a6366004611497565b61016b565b6040516100c29b9a99989796959493929190611963565b60405180910390f35b6100ab6100d9366004611497565b610554565b6100e6610861565b6040516100c29190611896565b6101066101013660046113dd565b610867565b005b6101066101163660046114af565b610b29565b610123610ced565b6040516100c291906115a9565b61014361013e366004611390565b610cfc565b6040516100c291906115bd565b610143610e40565b6101066101663660046114f4565b610ef3565b6000606080600060608060008060008060606000600160008e815260200190815260200160002060405180610160016040529081600082015481526020016001820180546101b890611a24565b80601f01602080910402602001604051908101604052809291908181526020018280546101e490611a24565b80156102315780601f1061020657610100808354040283529160200191610231565b820191906000526020600020905b81548152906001019060200180831161021457829003601f168201915b5050505050815260200160028201805461024a90611a24565b80601f016020809104026020016040519081016040528092919081815260200182805461027690611a24565b80156102c35780601f10610298576101008083540402835291602001916102c3565b820191906000526020600020905b8154815290600101906020018083116102a657829003601f168201915b50505050508152602001600382015481526020016004820180546102e690611a24565b80601f016020809104026020016040519081016040528092919081815260200182805461031290611a24565b801561035f5780601f106103345761010080835404028352916020019161035f565b820191906000526020600020905b81548152906001019060200180831161034257829003601f168201915b5050505050815260200160058201805461037890611a24565b80601f01602080910402602001604051908101604052809291908181526020018280546103a490611a24565b80156103f15780601f106103c6576101008083540402835291602001916103f1565b820191906000526020600020905b8154815290600101906020018083116103d457829003601f168201915b5050509183525050600682015460208201526007820154604082015260088201546001600160a01b0381166060830152600160a01b900460ff161515608082015260098201805460a09092019161044790611a24565b80601f016020809104026020016040519081016040528092919081815260200182805461047390611a24565b80156104c05780601f10610495576101008083540402835291602001916104c0565b820191906000526020600020905b8154815290600101906020018083116104a357829003601f168201915b5050509190925250508151919250506104f45760405162461bcd60e51b81526004016104eb90611638565b60405180910390fd5b806000015181602001518260400151836060015184608001518560a001518660c001518760e001518861010001518961012001518a61014001519b509b509b509b509b509b509b509b509b509b509b505091939597999b90929496989a50565b60016020819052600091825260409091208054918101805461057590611a24565b80601f01602080910402602001604051908101604052809291908181526020018280546105a190611a24565b80156105ee5780601f106105c3576101008083540402835291602001916105ee565b820191906000526020600020905b8154815290600101906020018083116105d157829003601f168201915b50505050509080600201805461060390611a24565b80601f016020809104026020016040519081016040528092919081815260200182805461062f90611a24565b801561067c5780601f106106515761010080835404028352916020019161067c565b820191906000526020600020905b81548152906001019060200180831161065f57829003601f168201915b50505050509080600301549080600401805461069790611a24565b80601f01602080910402602001604051908101604052809291908181526020018280546106c390611a24565b80156107105780601f106106e557610100808354040283529160200191610710565b820191906000526020600020905b8154815290600101906020018083116106f357829003601f168201915b50505050509080600501805461072590611a24565b80601f016020809104026020016040519081016040528092919081815260200182805461075190611a24565b801561079e5780601f106107735761010080835404028352916020019161079e565b820191906000526020600020905b81548152906001019060200180831161078157829003601f168201915b50505050600683015460078401546008850154600986018054959693959294506001600160a01b03821693600160a01b90920460ff16926107de90611a24565b80601f016020809104026020016040519081016040528092919081815260200182805461080a90611a24565b80156108575780601f1061082c57610100808354040283529160200191610857565b820191906000526020600020905b81548152906001019060200180831161083a57829003601f168201915b505050505090508b565b60025481565b60008054604051632782085160e01b81526001600160a01b03909116906327820851906108989033906004016115a9565b60206040518083038186803b1580156108b057600080fd5b505afa1580156108c4573d6000803e3d6000fd5b505050506040513d601f19601f820116820180604052508101906108e891906113be565b600481111561090757634e487b7160e01b600052602160045260246000fd5b146109245760405162461bcd60e51b81526004016104eb90611763565b600084116109445760405162461bcd60e51b81526004016104eb9061166f565b4281116109635760405162461bcd60e51b81526004016104eb906116e9565b6002805490600061097383611a5f565b9091555050604080516101608101825260025480825260208083018a81528385018a9052606084018990526080840188905260a0840187905260c084018690524260e0850152336101008501526000610120850181905285518084018752818152610140860152928352600180835294909220835181559151805193949293610a03938501929190910190611276565b5060408201518051610a1f916002840191602090910190611276565b506060820151600382015560808201518051610a45916004840191602090910190611276565b5060a08201518051610a61916005840191602090910190611276565b5060c0820151600682015560e082015160078201556101008201516008820180546101208501511515600160a01b0260ff60a01b196001600160a01b039094166001600160a01b031990921691909117929092169190911790556101408201518051610ad7916009840191602090910190611276565b50506002546040513392507f90777e50ad058d156aea3492296d72b964af05da39555a4a310cf0448c7ce7cb91610b19918a908a908a908a908a908a906118f5565b60405180910390a2505050505050565b600054604051632782085160e01b81526001916001600160a01b031690632782085190610b5a9033906004016115a9565b60206040518083038186803b158015610b7257600080fd5b505afa158015610b86573d6000803e3d6000fd5b505050506040513d601f19601f82011682018060405250810190610baa91906113be565b6004811115610bc957634e487b7160e01b600052602160045260246000fd5b14610be65760405162461bcd60e51b81526004016104eb906117b7565b600082815260016020526040902054610c115760405162461bcd60e51b81526004016104eb90611638565b600082815260016020526040902060080154600160a01b900460ff1615610c4a5760405162461bcd60e51b81526004016104eb906116b2565b6000815111610c6b5760405162461bcd60e51b81526004016104eb90611720565b600082815260016020908152604090912060088101805460ff60a01b1916600160a01b1790558251610ca592600990920191840190611276565b50336001600160a01b03167f486902b460c6b7ef5c554b14bf178a920f32e09ed71424356c42817949b5554d8383604051610ce192919061189f565b60405180910390a25050565b6000546001600160a01b031681565b6060600060015b6002548111610d51576000818152600160205260409020600801546001600160a01b0385811691161415610d3f5781610d3b81611a5f565b9250505b80610d4981611a5f565b915050610d03565b5060008167ffffffffffffffff811115610d7b57634e487b7160e01b600052604160045260246000fd5b604051908082528060200260200182016040528015610da4578160200160208202803683370190505b509050600060015b6002548111610e36576000818152600160205260409020600801546001600160a01b0387811691161415610e24576000818152600160205260409020548351849084908110610e0b57634e487b7160e01b600052603260045260246000fd5b602090810291909101015281610e2081611a5f565b9250505b80610e2e81611a5f565b915050610dac565b5090949350505050565b6060600060025467ffffffffffffffff811115610e6d57634e487b7160e01b600052604160045260246000fd5b604051908082528060200260200182016040528015610e96578160200160208202803683370190505b50905060015b6002548111610eed578082610eb2600183611a0d565b81518110610ed057634e487b7160e01b600052603260045260246000fd5b602090810291909101015280610ee581611a5f565b915050610e9c565b50905090565b60008054604051632782085160e01b81526001600160a01b0390911690632782085190610f249033906004016115a9565b60206040518083038186803b158015610f3c57600080fd5b505afa158015610f50573d6000803e3d6000fd5b505050506040513d601f19601f82011682018060405250810190610f7491906113be565b6004811115610f9357634e487b7160e01b600052602160045260246000fd5b14610fb05760405162461bcd60e51b81526004016104eb90611763565b600083815260016020526040902054610fdb5760405162461bcd60e51b81526004016104eb90611638565b6000838152600160205260409020600801546001600160a01b031633146110145760405162461bcd60e51b81526004016104eb9061180b565b600083815260016020526040902060080154600160a01b900460ff161561104d5760405162461bcd60e51b81526004016104eb9061185f565b60408051808201909152600981526877617374655479706560b81b6020918201528251908301207fda62af0599126ecc85f63c85e25c4a3aa39f78504e1ccd24ffa5f0d6fbc5924914156110c657600083815260016020818152604090922083516110c093919092019190840190611276565b50611236565b60408051808201909152600681526537b934b3b4b760d11b6020918201528251908301207fe2c8f58f0df9cec2871ea15158e280ec612c88c13436bc131ebac9868db8cafe141561113657600083815260016020908152604090912082516110c092600290920191840190611276565b60408051808201909152600b81526a3232b9b1b934b83a34b7b760a91b6020918201528251908301207f1596dc38e2ac5a6ddc5e019af4adcc1e017a04f510d57e69d6879d5d2996bb8e14156111ab57600083815260016020908152604090912082516110c092600490920191840190611276565b6040805180820190915260098152680d2dac2ceca90c2e6d60bb1b6020918201528251908301207f1cdbc8d71b26435d54a4b2eb9a81206ac8ca1b29f1e8877d57070e96bbfdbf11141561121e57600083815260016020908152604090912082516110c092600590920191840190611276565b60405162461bcd60e51b81526004016104eb90611601565b7f8c4d5fbb3ba0d7b64f607c6d030696516184f74cf74fa96028b0720feaecbf4c838383604051611269939291906118c0565b60405180910390a1505050565b82805461128290611a24565b90600052602060002090601f0160209004810192826112a457600085556112ea565b82601f106112bd57805160ff19168380011785556112ea565b828001600101855582156112ea579182015b828111156112ea5782518255916020019190600101906112cf565b506112f69291506112fa565b5090565b5b808211156112f657600081556001016112fb565b600082601f83011261131f578081fd5b813567ffffffffffffffff8082111561133a5761133a611a90565b604051601f8301601f19168101602001828111828210171561135e5761135e611a90565b604052828152848301602001861015611375578384fd5b82602086016020830137918201602001929092529392505050565b6000602082840312156113a1578081fd5b81356001600160a01b03811681146113b7578182fd5b9392505050565b6000602082840312156113cf578081fd5b8151600581106113b7578182fd5b60008060008060008060c087890312156113f5578182fd5b863567ffffffffffffffff8082111561140c578384fd5b6114188a838b0161130f565b9750602089013591508082111561142d578384fd5b6114398a838b0161130f565b9650604089013595506060890135915080821115611455578384fd5b6114618a838b0161130f565b94506080890135915080821115611476578384fd5b5061148389828a0161130f565b92505060a087013590509295509295509295565b6000602082840312156114a8578081fd5b5035919050565b600080604083850312156114c1578182fd5b82359150602083013567ffffffffffffffff8111156114de578182fd5b6114ea8582860161130f565b9150509250929050565b600080600060608486031215611508578283fd5b83359250602084013567ffffffffffffffff80821115611526578384fd5b6115328783880161130f565b93506040860135915080821115611547578283fd5b506115548682870161130f565b9150509250925092565b60008151808452815b8181101561158357602081850181015186830182015201611567565b818111156115945782602083870101525b50601f01601f19169290920160200192915050565b6001600160a01b0391909116815260200190565b6020808252825182820181905260009190848201906040850190845b818110156115f5578351835292840192918401916001016115d9565b50909695505050505050565b6020808252601e908201527f496e76616c6964206669656c64206e616d6520666f72207570646174652e0000604082015260600190565b6020808252601a908201527f5761737465206974656d20646f6573206e6f742065786973742e000000000000604082015260600190565b60208082526023908201527f5175616e74697479206d7573742062652067726561746572207468616e207a6560408201526239379760e91b606082015260800190565b6020808252601d908201527f5761737465206974656d20616c72656164792070726f6365737365642e000000604082015260600190565b6020808252601f908201527f446561646c696e65206d75737420626520696e20746865206675747572652e00604082015260600190565b60208082526023908201527f52656379636c696e67206d6574686f64206d757374206265207370656369666960408201526232b21760e91b606082015260800190565b60208082526034908201527f556e617574686f72697a65643a204f6e6c792070726f6475636572732063616e604082015273103832b93337b936903a3434b99030b1ba34b7b760611b606082015260800190565b60208082526034908201527f556e617574686f72697a65643a204f6e6c792072656379636c6572732063616e604082015273103832b93337b936903a3434b99030b1ba34b7b760611b606082015260800190565b60208082526034908201527f4f6e6c7920746865206f726967696e616c2070726f64756365722063616e2075604082015273383230ba32903bb0b9ba32903232ba30b4b6399760611b606082015260800190565b6020808252601e908201527f43616e6e6f74207570646174652070726f6365737365642077617374652e0000604082015260600190565b90815260200190565b6000838252604060208301526118b8604083018461155e565b949350505050565b6000848252606060208301526118d9606083018561155e565b82810360408401526118eb818561155e565b9695505050505050565b600088825260e0602083015261190e60e083018961155e565b8281036040840152611920818961155e565b9050866060840152828103608084015261193a818761155e565b905082810360a084015261194e818661155e565b9150508260c083015298975050505050505050565b60006101608d835280602084015261197d8184018e61155e565b90508281036040840152611991818d61155e565b90508a606084015282810360808401526119ab818b61155e565b905082810360a08401526119bf818a61155e565b60c0840189905260e084018890526001600160a01b03871661010085015285151561012085015283810361014085015290506119fb818561155e565b9e9d5050505050505050505050505050565b600082821015611a1f57611a1f611a7a565b500390565b600281046001821680611a3857607f821691505b60208210811415611a5957634e487b7160e01b600052602260045260246000fd5b50919050565b6000600019821415611a7357611a73611a7a565b5060010190565b634e487b7160e01b600052601160045260246000fd5b634e487b7160e01b600052604160045260246000fdfea2646970667358221220bb7fc68916f902e95b80638d86e98f0d20ead7a0ccd351bd556a205a94afa0c864736f6c63430008000033",
  "immutableReferences": {},
  "source": "// SPDX-License-Identifier: MIT\r\npragma solidity ^0.8.0;\r\n\r\nimport \"./UserManagement.sol\";\r\n\r\ncontract eWasteTracking {\r\n    UserManagement public userManagement;\r\n\r\n    struct eWasteItem {\r\n        uint id;\r\n        string wasteType;\r\n        string origin;\r\n        uint quantity;\r\n        string description;\r\n        string imageHash;  // IPFS hash for image\r\n        uint256 deadline;  // Deadline set by producer\r\n        uint256 loggedAt;\r\n        address producer;\r\n        bool isProcessed;\r\n        string recyclingMethod;  // How the item was recycled\r\n    }\r\n\r\n    mapping(uint => eWasteItem) public wasteRecords;\r\n    uint public wasteCounter;\r\n    \r\n    // Events\r\n    event WasteLogged(\r\n        uint id, \r\n        string wasteType, \r\n        string origin, \r\n        uint quantity, \r\n        string description,\r\n        string imageHash,\r\n        uint256 deadline, \r\n        address indexed producer\r\n    );\r\n    event WasteProcessed(uint id, address indexed recycler, string recyclingMethod);\r\n    event WasteUpdated(uint id, string field, string newValue);\r\n\r\n    constructor(address _userManagementAddress) {\r\n        userManagement = UserManagement(_userManagementAddress);\r\n        wasteCounter = 0;\r\n    }\r\n\r\n    modifier onlyProducer() {\r\n        require(\r\n            userManagement.getUserRole(msg.sender) == UserManagement.Role.Producer,\r\n            \"Unauthorized: Only producers can perform this action\"\r\n        );\r\n        _;\r\n    }\r\n\r\n    modifier onlyRecycler() {\r\n        require(\r\n            userManagement.getUserRole(msg.sender) == UserManagement.Role.Recycler,\r\n            \"Unauthorized: Only recyclers can perform this action\"\r\n        );\r\n        _;\r\n    }\r\n\r\n    function logWaste(\r\n        string memory _wasteType,\r\n        string memory _origin,\r\n        uint _quantity,\r\n        string memory _description,\r\n        string memory _imageHash,\r\n        uint256 _deadline\r\n    ) external onlyProducer {\r\n        require(_quantity > 0, \"Quantity must be greater than zero.\");\r\n        require(_deadline > block.timestamp, \"Deadline must be in the future.\");\r\n\r\n        wasteCounter++;\r\n        wasteRecords[wasteCounter] = eWasteItem({\r\n            id: wasteCounter,\r\n            wasteType: _wasteType,\r\n            origin: _origin,\r\n            quantity: _quantity,\r\n            description: _description,\r\n            imageHash: _imageHash,\r\n            deadline: _deadline,\r\n            loggedAt: block.timestamp,\r\n            producer: msg.sender,\r\n            isProcessed: false,\r\n            recyclingMethod: \"\"\r\n        });\r\n        \r\n        emit WasteLogged(\r\n            wasteCounter, \r\n            _wasteType, \r\n            _origin, \r\n            _quantity, \r\n            _description,\r\n            _imageHash,\r\n            _deadline, \r\n            msg.sender\r\n        );\r\n    }\r\n\r\n    function markAsProcessed(uint _id, string memory _recyclingMethod) external onlyRecycler {\r\n        require(wasteRecords[_id].id != 0, \"Waste item does not exist.\");\r\n        require(!wasteRecords[_id].isProcessed, \"Waste item already processed.\");\r\n        require(bytes(_recyclingMethod).length > 0, \"Recycling method must be specified.\");\r\n        \r\n        wasteRecords[_id].isProcessed = true;\r\n        wasteRecords[_id].recyclingMethod = _recyclingMethod;\r\n        emit WasteProcessed(_id, msg.sender, _recyclingMethod);\r\n    }\r\n\r\n    function updateWasteDetails(\r\n        uint _id, \r\n        string memory _field, \r\n        string memory _value\r\n    ) external onlyProducer {\r\n        require(wasteRecords[_id].id != 0, \"Waste item does not exist.\");\r\n        require(wasteRecords[_id].producer == msg.sender, \"Only the original producer can update waste details.\");\r\n        require(!wasteRecords[_id].isProcessed, \"Cannot update processed waste.\");\r\n        \r\n        if (keccak256(bytes(_field)) == keccak256(bytes(\"wasteType\"))) {\r\n            wasteRecords[_id].wasteType = _value;\r\n        } else if (keccak256(bytes(_field)) == keccak256(bytes(\"origin\"))) {\r\n            wasteRecords[_id].origin = _value;\r\n        } else if (keccak256(bytes(_field)) == keccak256(bytes(\"description\"))) {\r\n            wasteRecords[_id].description = _value;\r\n        } else if (keccak256(bytes(_field)) == keccak256(bytes(\"imageHash\"))) {\r\n            wasteRecords[_id].imageHash = _value;\r\n        } else {\r\n            revert(\"Invalid field name for update.\");\r\n        }\r\n        \r\n        emit WasteUpdated(_id, _field, _value);\r\n    }\r\n\r\n    function getWasteItem(uint _id) external view returns (\r\n        uint id,\r\n        string memory wasteType,\r\n        string memory origin,\r\n        uint quantity,\r\n        string memory description,\r\n        string memory imageHash,\r\n        uint256 deadline,\r\n        uint256 loggedAt,\r\n        address producer,\r\n        bool isProcessed,\r\n        string memory recyclingMethod\r\n    ) {\r\n        eWasteItem memory item = wasteRecords[_id];\r\n        require(item.id != 0, \"Waste item does not exist.\");\r\n        \r\n        return (\r\n            item.id,\r\n            item.wasteType,\r\n            item.origin,\r\n            item.quantity,\r\n            item.description,\r\n            item.imageHash,\r\n            item.deadline,\r\n            item.loggedAt,\r\n            item.producer,\r\n            item.isProcessed,\r\n            item.recyclingMethod\r\n        );\r\n    }\r\n    \r\n    function getWasteItemsByProducer(address _producer) external view returns (uint[] memory) {\r\n        uint count = 0;\r\n        \r\n        // Count waste items for this producer\r\n        for (uint i = 1; i <= wasteCounter; i++) {\r\n            if (wasteRecords[i].producer == _producer) {\r\n                count++;\r\n            }\r\n        }\r\n        \r\n        // Create array of IDs\r\n        uint[] memory result = new uint[](count);\r\n        uint index = 0;\r\n        \r\n        // Fill array with IDs\r\n        for (uint i = 1; i <= wasteCounter; i++) {\r\n            if (wasteRecords[i].producer == _producer) {\r\n                result[index] = wasteRecords[i].id;\r\n                index++;\r\n            }\r\n        }\r\n        \r\n        return result;\r\n    }\r\n    \r\n    function getAllWasteItems() external view returns (uint[] memory) {\r\n        uint[] memory allItems = new uint[](wasteCounter);\r\n        \r\n        for (uint i = 1; i <= wasteCounter; i++) {\r\n            allItems[i-1] = i;\r\n        }\r\n        \r\n        return allItems;\r\n    }\r\n}",
  "sourcePath": "C:\\Users\\harod\\OneDrive\\Documents\\Ewaste11\\ewaste_v2\\contracts\\eWasteTracking.sol",
  "compiler": {
    "name": "solc",
    "version": "0.8.0+commit.c7dfd78e.Emscripten.clang"
  },
  "schemaVersion": "3.4.16",
  "updatedAt": "2025-05-13T14:13:43.954Z",
  "networkType": "ethereum",
  "devdoc": {
    "kind": "dev",
    "methods": {},
    "version": 1
  },
  "userdoc": {
    "kind": "user",
    "methods": {},
    "version": 1
  }
}